:100000000C9446050C946E050C946E050C946E05CC
:100010000C946E050C946E050C946E050C946E0594
:100020000C946E050C946E050C946E050C94C21520
:100030000C946E050C946E050C946E050C946E0574
:100040000C9478150C946E050C946E050C946E054A
:100050000C946E050C946E050C946E050C946E0554
:100060000C947E160C946E0500000000003E5B4F61
:100070005B3E3E6B4F6B3E1C3E7C3E1C183C7E3C08
:10008000181C577D571C1C5E7F5E1C00183C180016
:10009000FFE7C3E7FF0018241800FFE7DBE7FF30A6
:1000A000483A060E2629792926407F050507407F14
:1000B00005253F5A3CE73C5A7F3E1C1C08081C1C87
:1000C0003E7F14227F22145F5F005F5F06097F017D
:1000D0007F006689956A606060606094A2FFA29468
:1000E00008047E040810207E201008082A1C080836
:1000F0001C2A08081E101010100C1E0C1E0C303884
:100100003E3830060E3E0E06000000000000005F84
:1001100000000007000700147F147F14242A7F2AA0
:100120001223130864623649562050000807030062
:10013000001C2241000041221C002A1C7F1C2A08AE
:10014000083E080800807030000808080808000011
:1001500060600020100804023E5149453E00427F85
:10016000400072494949462141494D331814127FD4
:100170001027454545393C4A494931412111090774
:100180003649494936464949291E000014000000F5
:1001900040340000000814224114141414140041C7
:1001A00022140802015909063E415D594E7C121184
:1001B000127C7F494949363E414141227F414141BC
:1001C0003E7F494949417F090909013E4141517337
:1001D0007F0808087F00417F41002040413F017FA8
:1001E000081422417F404040407F021C027F7F0470
:1001F00008107F3E4141413E7F090909063E4151B9
:10020000215E7F09192946264949493203017F01A8
:10021000033F4040403F1F2040201F3F4038403FA9
:10022000631408146303047804036159494D4300BF
:100230007F4141410204081020004141417F0402F6
:10024000010204404040404000030708002054548D
:1002500078407F284444383844444428384444286B
:100260007F385454541800087E090218A4A49C78BE
:100270007F0804047800447D40002040403D007F1A
:100280001028440000417F40007C047804787C08FA
:100290000404783844444438FC18242418182424CE
:1002A00018FC7C08040408485454542404043F44B3
:1002B000243C4040207C1C2040201C3C4030403CE2
:1002C00044281028444C9090907C4464544C440042
:1002D00008364100000077000000413608000201A6
:1002E0000204023C2623263C1EA1A161123A404092
:1002F000207A38545455592155557941225454780F
:1003000042215554784020545579400C1E527212A7
:100310003955555559395454545939555454580030
:1003200000457C410002457D420001457C407D1234
:1003300011127DF0282528F07C5455450020545496
:100340007C547C0A097F4932494949323A44444441
:100350003A324A4848303A4141217A3A424020787C
:10036000009DA0A07D3D4242423D3D4040403D3C7D
:1003700024FF2424487E4943662B2FFC2F2BFF09A2
:1003800029F620C0887E0903205454794100004496
:100390007D413048484A32384040227A007A0A0A81
:1003A000727D0D19317D2629292F282629292926F4
:1003B00030484D4020380808080808080808382F39
:1003C00010C8ACBA2F102834FA00007B00000814C3
:1003D0002A142222142A14085500550055AA55AA99
:1003E00055AAFF55FF55FF000000FF00101010FF39
:1003F00000141414FF001010FF00FF1010F010F094
:10040000141414FC001414F700FF0000FF00FF1484
:1004100014F404FC141417101F10101F101F1414D0
:10042000141F00101010F0000000001F101010101A
:100430001F10101010F010000000FF10101010100E
:1004400010101010FF10000000FF140000FF00FF4C
:1004500000001F10170000FC04F4141417101714E8
:1004600014F404F40000FF00F7141414141414140A
:10047000F700F7141414171410101F101F1414147D
:10048000F4141010F010F000001F101F0000001FE7
:1004900014000000FC140000F010F01010FF10FF1A
:1004A000141414FF141010101F00000000F010FFAF
:1004B000FFFFFFFFF0F0F0F0F0FFFFFF0000000093
:1004C00000FFFF0F0F0F0F0F3844443844FC4A4A17
:1004D0004A347E02020606027E027E0263554941CC
:1004E000633844443C04407E201E2006027E020203
:1004F00099A5E7A5991C2A492A1C4C7201724C3017
:100500004A4D4D303048784830BC625A463D3E49ED
:100510004949007E0101017E2A2A2A2A2A44445F91
:10052000444440514A444040444A51400000FF0185
:1005300003E080FF000008086B6B08361236243693
:10054000060F090F060000181800000010100030F8
:1005500040FF0101001F01011E00191D1712003C80
:100560003C3C3C0000000000000103070F1F3F7FE0
:100570000080C0E0F0F8FCFEDB40A4A62EAF200017
:10058000A1C8D300408DAED580A800006000000057
:100590000000000000000000000000E0000000007B
:1005A00000000000000000000001E000000000006A
:1005B000000000000000000001F00000000000004A
:1005C0000000000000000003F00000000000000038
:1005D00000000000000007F0000000000000000024
:1005E000000000000007F80000000000000000000C
:1005F000000000000FF800000003C0007E000001B2
:10060000E0007F0FF800000003C000FE000001E0E2
:1006100000FFEFF800000003C000FE000001E00052
:10062000FFFFF800000003C000F00000000F007F93
:10063000FE7FC0000003C000F00000000F003FFE7E
:100640007FF83FF1FBCFFCFEF3BC3DEFE01FFE7FE8
:10065000FF7FFBFFDFFEFEFFBC3DEFE01FC6FFFF9D
:100660007FFBFFDFFEFEFFBC3DEFE00FE3C7FE7840
:100670007BC3DE1EF0FFBC3DEF0007FF87FC787BED
:10068000C3DE1EF0F83C3DEF0001FFFFF0007BC32E
:10069000C01EF0F03C3DEF0001F37FE03FFBC3CF15
:1006A000FEF0F03C3DEF0003E33F807FFBC3DFFE45
:1006B000F0F03C3DEF0007E73C00787BC3DE1EF026
:1006C000F03C3DEF0007FFBE00787BC3DE1EF0F07C
:1006D0003C3DEF0007FFFE00787BC3DE1EF0F03CE0
:1006E0003DEF000FFFFE007FFBFFDFFEF0F03FFD60
:1006F000EFE00FFFFF007FFBFFDFFEF0F03FFDEFBD
:10070000E00FF9FF003E79F9CF9EF0F01F3DE7E0E2
:100710001FF1FF0000000000000000000000001FAB
:1007200080FF007FFFFFFFFFFFFFFFFFFFE01C00D8
:100730007F007FFFFFFFFEB46D888D18E000001F73
:10074000007FFFFFFFFE95AD7DB577E000000F0055
:100750007FFFFFFFFEA5AD9D8D19E0000006007F25
:10076000FFFFFFFEB5ADEDB57EE00000000000012B
:100770008000000000000000000003800000000076
:10078000000000000007C0000000000000000000A2
:1007900007C00000000000000000000FC0000000C3
:1007A0000000000000001FE000000000000000004A
:1007B000001FE00000000000000000003FE000001B
:1007C000000000000000003FF000000000000000FA
:1007D00000007FF0000000000000001FF87FF00024
:1007E0000000000000003FFE7FF00000000000005D
:1007F000003FFF7FF0000000000000001FFFFBE053
:10080000000000000000000FFFF9FFC00000000022
:1008100000000FFFF9FFF800000000000007FFF1E3
:10082000FFFF00000000000003FC73FFFF800000DA
:1008300000000001FE3FFFFF80000000000000FFFD
:100840001E0FFF000000000000007FFE1FFC0000E4
:1008500000000000003FFFFFF80000000000000063
:100860000FDFFFE0000000000000001F19FFC000C4
:100870000000000000003F3CFF00000000000000FE
:10088000007E7CF800000000000000007FFE7C007D
:1008900000000000000000FFFFFC0000000000005E
:1008A0000000FFFFFE0000000000000000FFFFFE50
:1008B0000000000000000001FFEFFE00000000004B
:1008C000000001FFCFFE0000000000000003FF0752
:1008D000FE0000000000000003FC07FE0000000016
:1008E00000000003F003FE00000000000000018093
:1008F00000FE000000000000000000007E0000007C
:10090000000000000000003E0000000000000000A9
:1009100000000C000000000000078000FC00000345
:10092000C0000000078001FC000003C000000007B9
:100930008001FC000003C0000000078001E000000F
:10094000001E000000078001E00000001E007FE3A1
:10095000F79FF9FDE7787BDFC0FFF7FFBFFDFDFFE5
:10096000787BDFC0FFF7FFBFFDFDFF787BDFC0F0C6
:10097000F787BC3DE1FF787BDE00F0F787BC3DE107
:10098000F0787BDE0000F787803DE1E0787BDE00D9
:100990007FF7879FFDE1E0787BDE00FFF787BFFDF3
:1009A000E1E0787BDE00F0F787BC3DE1E0787BDEBC
:1009B00000F0F787BC3DE1E0787BDE00F0F787BC14
:1009C0003DE1E0787BDE00FFF7FFBFFDE1E07FFB6C
:1009D000DFC0FFF7FFBFFDE1E07FFBDFC07CF3F38B
:1009E0009F3DE1E03E7BCFC0000000000000000022
:1009F000000000FFFFFFFFFFFFFFFFFFFFC0FFFF43
:100A0000FFFFFD68DB111A31C0FFFFFFFFFD2B5A0E
:100A1000FB6AEFC0FFFFFFFFFD4B5B3B1A33C0FFDC
:100A2000FFFFFFFD6B5BDB6AFDC0000000002400E0
:100A300027002A0000000000250028002B000000ED
:100A40000000230026002900040404040404040414
:100A50000202020202020303030303030102040869
:100A60001020408001020408102001020408102018
:100A7000000000080002010000030407000000005D
:100A8000000000002200FF21AE17421F11241FBEEC
:100A9000CFEFD8E0DEBFCDBF11E0A0E0B1E0E2E8EB
:100AA000F5E402C005900D92AC3FB107D9F723E001
:100AB000ACEFB1E001C01D92AD3BB207E1F715E02C
:100AC000C5E4D5E004C02197FE010E94A720C434EC
:100AD000D107C9F70E94B0180C94B4220C940000FE
:100AE00008958F929F92AF92BF92FF920F931F93A0
:100AF000CF93DF938F3F980709F461C0853B910541
:100B000011F484EB90E0F0906A032BE02F1508F4C9
:100B10004CC020916C0308E512E0021B110927FD6F
:100B20001395000F111F000F111F20916B03C8E8D0
:100B3000D0E0C21BD10927FDD395CC0FDD1FCC0F10
:100B4000DD1F4E010D2E000CAA08BB089801012ED6
:100B5000000C440B550B281939094A095B09DC01C3
:100B60000E942B2024EB30E040E050E00E94012066
:100B7000820E931EA41EB51E8C169D062CF0E80155
:100B8000801691060CF4E4012297CC0FDD1F2FB7DD
:100B9000F8948F2D90E0FC01EE0FFF1FE80FF91F76
:100BA000EC53FD4FD283C1832FBFDF91CF911F91B3
:100BB0000F91FF90BF90AF909F908F90089590E01D
:100BC00080E0A1CF96E0899FD0011124A550BD4FB0
:100BD00090967C936E935F9791E091969C939197FA
:100BE000E0916803F091690390916703992339F0CC
:100BF000309751F0811108C0809117030994309704
:100C000019F05C968C91FACF0895CF92DF92EF9213
:100C1000FF920F931F9396E0899FF0011124E550F6
:100C2000FD4F11A2278D30A12130310551F178F00F
:100C30002230310509F451C02330310509F452C086
:100C40001F910F91FF90EF90DF90CF900895662352
:100C5000B9F361E070E00E94E2052FB7F89480914B
:100C6000BC029091BD02A091BE02B091BF022FBF05
:100C70008093530390935403A0935503B09356036A
:100C8000DFCF9FB7F894C090BC02D090BD02E09037
:100C9000BE02F090BF029FBF009153031091540316
:100CA0002091550330915603C01AD10AE20AF30A83
:100CB000009165031091660330E020E00C151D05DE
:100CC0002E053F0550F462E070E01F910F91FF90F8
:100CD000EF90DF90CF900C94E2056111B1CF63E00B
:100CE00070E0F3CF70E060E0F0CF833081F028F463
:100CF000813099F08230A9F008958730A9F08830CA
:100D0000C9F08430B1F4809180008F7D03C0809160
:100D100080008F7780938000089584B58F7784BD9D
:100D2000089584B58F7DFBCF8091B0008F7780933D
:100D3000B00008958091B0008F7DF9CFCF93DF93FD
:100D4000282F30E0F901E059F54F8491F901E45A78
:100D5000F54FD491F901E85BF54FC491CC23A1F094
:100D600081110E947506EC2FF0E0EE0FFF1FE25C90
:100D7000F54FA591B491EC91ED2381E090E009F459
:100D800080E0DF91CF91089580E090E0FACF1F934B
:100D9000CF93DF93282F30E0F901E059F54F84918C
:100DA000F901E45AF54FD491F901E85BF54FC4918C
:100DB000CC23A9F0162F81110E947506EC2FF0E0CC
:100DC000EE0FFF1FEC5CF54FA591B4918FB7F8942F
:100DD000EC91111108C0D095DE23DC938FBFDF9119
:100DE000CF911F910895DE2BF8CFCF93DF9390E042
:100DF000FC01E45AF54F2491885B954FFC018491E6
:100E00008823C9F090E0880F991FFC01E65DF54F3B
:100E1000A591B491FC01EC5CF54FC591D4916111A1
:100E20000DC09FB7F8948C91209582238C93888174
:100E3000282328839FBFDF91CF910895623051F41A
:100E40009FB7F8943C91822F809583238C93E881FF
:100E50002E2BEFCF8FB7F894EC912E2B2C938FBFC6
:100E6000EACF3FB7F8948091B8029091B902A0916F
:100E7000BA02B091BB0226B5A89B05C02F3F19F05E
:100E80000196A11DB11D3FBFBA2FA92F982F88270A
:100E9000BC01CD01620F711D811D911D42E0660FE5
:100EA000771F881F991F4A95D1F708958F929F92B7
:100EB000AF92BF92CF92DF92EF92FF924B015C0113
:100EC0000E9431076B017C010E9431076C197D097A
:100ED0008E099F09683E734081059105A8F321E0C2
:100EE000821A9108A108B10888EEC80E83E0D81EC6
:100EF000E11CF11C81149104A104B10429F7FF90B5
:100F0000EF90DF90CF90BF90AF909F908F9008951B
:100F1000862F642F0C94F506862F642F0C94C70639
:100F2000862F0C949E0608950895AF92BF92CF929B
:100F3000DF92EF92FF920F931F93CF93DF936C0199
:100F40007B018B01040F151FEB015E01AE18BF087A
:100F5000C017D10759F06991D601ED91FC9101902C
:100F6000F081E02DC6010995892B79F7C501DF9144
:100F7000CF911F910F91FF90EF90DF90CF90BF9096
:100F8000AF900895EF92FF920F931F93CF93DF934B
:100F9000EC01EC80FD806E157F050CF070C057FFF2
:100FA00004C0240F351F50E040E08E819F81FA017C
:100FB000E20FF31F8E179F071CF49C01241B350BB7
:100FC000121613060CF05BC0922F842F869586951F
:100FD00086958E9DD0018F9DB00D11246A0F7B1FC9
:100FE000AF8DB8A1A60FB71F477049F188E0841BE9
:100FF000482F682F70E0FB01E059FA4FE491281761
:1010000008F063C0621B71092FEF30E002C0359514
:1010100027956A95E2F7E2230130110539F0B0F126
:101020000230110561F58C91E82702C08C91E82B04
:10103000EC93941720F12C813D81A20FB31FE92F6F
:10104000E41BE83078F00230110521F58E2F9C91D9
:1010500090959C932C813D81A20FB31F88508830BE
:10106000B0F7E770EE2359F0F0E0E859FA4FE49159
:1010700001301105F9F010F10230110519F1DF917D
:10108000CF911F910F91FF90EF900895E0958C9173
:10109000E823CECF81E00115110509F480E08195A8
:1010A0009E2F8C932C813D81A20FB31F98509830B6
:1010B000C0F7D7CF8C91E82BEC93E1CFE0958C91E2
:1010C000E823FACF8C91E827F7CF0130110509F416
:1010D000ADCFE0F20230110509F4A5CFAE0DBF1D72
:1010E000AECF0F931F93CF93DF9377FF04C0260FEC
:1010F000371F70E060E0DC011496CD91DC91FB01BC
:10110000E20FF31FCE17DF071CF49E01261B370BDF
:10111000121613064CF5FA0157FD3796A3E0F59524
:10112000E795AA95E1F7EC9FD001ED9FB00DFC9FEC
:10113000B00D11246A0F7B1FDC015F96ED91FC91CD
:10114000E60FF71F4770552781E090E001C0880F38
:101150004A95EAF7482F0130110559F0A8F02E0FF3
:101160003F1F02301105E1F0DF91CF911F910F91E8
:1011700008952E0F3F1FE217F307B1F38191DF01AE
:101180001197842B8C93F7CF80952E0F3F1FE2177A
:10119000F30751F39191DF01119798239C93F7CFB7
:1011A000E217F30709F38191DF01119784278C93EC
:1011B000F7CF0F931F93FA01DC0156964C91569787
:1011C0004230E9F04330A1F1413061F514964D9180
:1011D0005C91DA01AE1BBF0BFD01E21BF30B77FD47
:1011E0000BC0DC0116964D915C916417750724F4D1
:1011F000AB01BF010E9471081F910F9108951496D1
:101200004D915C91DA01A61BB70BBD0161507109CC
:10121000DC0116964D915C91DA01AE1BBF0BFD010E
:10122000E21BF30B77FDE8CFAF010E94C207E4CFCA
:1012300016964D915C91DA01A61BB70BBD0161506A
:101240007109CDCF0F931F93FA01DC0156964C9193
:1012500056974230A9F0433091F1413019F5149678
:101260004D915C91DA01AE1BBF0BFD013197F7FD8B
:1012700004C0AB01BF010E94C2071F910F910895E6
:1012800014964D915C91DA01A61BB70BBD01DC01F0
:1012900016964D915C91DA01AE1BBF0BFD013197A3
:1012A000621B730BF7FDE9CFDC0116964D915C9143
:1012B000E417F50714F7AF010E947108DECF169608
:1012C0004D915C91DA01A61BB70BBD01621B730B3C
:1012D000CECFFC0177FD64C08085918568177907C2
:1012E0000CF05EC057FD5CC0828593854817590796
:1012F0000CF056C086898230B1F0833029F18130FC
:1013000041F484819581841B950BAB01BC01615034
:1013100071092130310509F108F443C0223031054B
:1013200009F463C0089584819581DC01A61BB70B85
:10133000BD016150710986819781DC01A41BB50B49
:10134000AD0141505109E5CF86819781861B970BEE
:10135000BA01AC0141505109DCCFCA0157FD0796D3
:10136000A3E095958795AA95E1F7A481B5818A9F19
:1013700090018B9F300D9A9F300D1124620F731FC7
:10138000078CF0A1E02DE60FF71F4770552721E0ED
:1013900030E001C0220F4A95EAF78081822B8083DA
:1013A0000895CA0157FD079633E0959587953A95BC
:1013B000E1F7A481B5818A9F90018B9F300D9A9FA0
:1013C000300D1124620F731F078CF0A1E02DE60F82
:1013D000F71F4770552781E090E001C0880F4A95BC
:1013E000EAF7809590818923DACFCA0157FD0796E5
:1013F00023E0959587952A95E1F7A481B5818A9F89
:1014000090018B9F300D9A9F300D1124620F731F36
:10141000078CF0A1E02DE60FF71F4770552721E05C
:1014200030E001C0220F4A95EAF780818227B7CFCA
:1014300008958EBD00000DB407FEFDCF8EB5089552
:101440008CBD9DBD08950895FC016370668B8481F9
:10145000958126813781613039F0633029F0918799
:1014600080873387228708953187208793878287F3
:1014700008952F923F924F925F926F927F928F9238
:101480009F92AF92BF92CF92DF92EF92FF920F9313
:101490001F93CF93DF93CDB7DEB76A970FB6F8945B
:1014A000DEBF0FBECDBF9A8F898F7A8369834A01D1
:1014B000D22E18870F833701BC2CDC0159962D9151
:1014C0003C915A972115310509F015C118968D9157
:1014D0009C911997681779070CF0D7C11A968D91CE
:1014E0009C91481759070CF0D0C14C2C512CB6E0F8
:1014F000CB9E600D711D11247C876B871616170615
:101500000CF0C3C1EA2DF0E0FA87E98793E0EE0F13
:10151000FF1F9A95E1F7F88BEF87CF01840F951F96
:10152000181619060CF0B1C1A98DBA8D58968C9178
:10153000811104C0BFEABD1508F4D394A98DBA8DFA
:10154000ED91FC9111970284F385E02DCD01099571
:10155000B5E0DB9EC0011124E981FA81FC83EB83B5
:10156000312C212C9C0128593F4F388F2F8B4A2D2D
:1015700050E05E8B4D8BEF89F88DE20DF31D4491A9
:101580009E828D82D12CC12C69817A81620D731D5E
:101590007A8B698B842F90E09C8B8B8BE98DFA8DF5
:1015A000A081B18140FF82C0F1E0BF126FC0AF12D5
:1015B0006DC01C96ED91FC912F813885A4014C0DD6
:1015C0005D1D69897A89898D9A8D0995EB89FC89D8
:1015D000F595E7954E2F5FEFC51AD50A6D817E818F
:1015E0008D899E89680F791F7E836D8398E0C91667
:1015F000D10481F6AFEF2A1A3A0AEB81FC81E40D9F
:10160000F51DFC83EB83F5E02F16310409F0B3CF11
:101610002F81388526153705B9F0A98DBA8DED9142
:10162000FC91B1E0BB1257C0AB1255C069817A8101
:101630006B5F7F4F0088F189E02D830128E030E067
:10164000A401898D9A8D0995A98DBA8DED91FC9192
:1016500011970688F789E02DCD016A960FB6F894A8
:10166000DEBF0FBECDBFDF91CF911F910F91FF90D5
:10167000EF90DF90CF90BF90AF909F908F907F9032
:101680006F905F904F903F902F9009941E96ED9130
:10169000FC91EF80F88409851A8592014D815E8165
:1016A0006B817C81898D9A8D099590CF2F813885AA
:1016B0002615370509F48ACF31E0B31207C0A3120B
:1016C00005C01C96ED91FC91930178CF1E96ED918B
:1016D000FC917301E0CF6B857C85641975090684E4
:1016E000F785E02D73010F8518899201A401898D7A
:1016F0009A8D0995A9CFF901349694913297459125
:101700005491D91AB7E0DB9E400D511D1124F90107
:10171000259134913C8B2B8BFA0125903490FA0162
:101720003296749031963491398B3296649031961A
:10173000449041E04C1518F04A1508F07FC0662D22
:10174000062C000C770B7C836B83842D042C000CFF
:10175000990B9E838D83A98DBA8DED91FC91119784
:101760000284F385E02DCD010995512CD12CC12C9B
:10177000EA2DF0E0FA87E9872B2D30E03C872B87B4
:10178000A401440D511D47FC5A95588F4F8B698118
:101790007A81660D711D67FC7A957E876D877989E0
:1017A000C71608F051CF2C2D30E04D815E81420FDD
:1017B000531FA985BA854A9FC0014B9F900D5A9F20
:1017C000900D1124FC01E80DF91DF88BEF87852D94
:1017D000612C4F89588D420F531F5E8B4D8B6714C0
:1017E00008F050C044244394480E877041F4C1016E
:1017F0000196EB89FC89E20DF31DD4901C01D7FE04
:1018000019C0A98DBA8DED91FC91662D70E0B1E003
:10181000BB1219C0AB1217C02D853E85620F731F16
:101820000484F585E02D2F8138854D895E89898D69
:101830009A8D0995DD0C6394842DD1CF1E821D8273
:101840001C821B8288CF4B815C81640F751FAB8526
:10185000BC856A9FC0016B9F900D7A9F900D1124EB
:1018600069817A81680F791F0684F785E02DEF8002
:10187000F88409851A859D014F855889898D9A8D2F
:101880000995D8CF570CC3948ACF6A960FB6F894AF
:10189000DEBF0FBECDBFDF91CF911F910F91FF90A3
:1018A000EF90DF90CF90BF90AF909F908F907F9000
:1018B0006F905F904F903F902F9008958F929F92DE
:1018C000AF92CF92EF92FF920F931F93CF93DF933C
:1018D000EC01262F898D9A8D009709F051C06A304E
:1018E000D1F41D861C868D8948E0849F90011124C7
:1018F0008E859F85820F931F9F878E8781E090E062
:10190000DF91CF911F910F91FF90EF90CF90AF900B
:101910009F908F9008956D3089F3CC88AD888F8922
:101920008823C1F08C859D8536E0C39E800D911D76
:101930001124488559854817590764F44E855F85F9
:101940001D861C8638E0A39EC0011124840F951FBC
:101950009F878E87EA88FB88088919894E855F856D
:101960006C857D85CE010E94390A2C898C859D85E8
:1019700046E0249F800D911D11249D878C87BECF4A
:101980006A3069F41D861C86FC013896E4912D8925
:101990008E859F85E29F800D911D1124ADCF6D3006
:1019A00009F4ACCFFC0134963491631708F4A6CF48
:1019B0003296E491E61708F4A1CFFC0132968590A7
:1019C0009490462F431B342F47E0349F800C911C8A
:1019D0001124F401329634913196E4913323A9F124
:1019E000EE2399F1CC88F4013596E491AD884F89C6
:1019F000442301F10E2E000CFF0BE30FF11DCE9ED0
:101A0000A001CF9E500D11246C857D85460F571F78
:101A100068857985641775076CF44E855F851D862A
:101A20001C86FC013896E491AE9E400D511D112498
:101A30005F874E87EA88FB88088919894E855F850C
:101A40006C857D85CE010E94390AF4013496E491BB
:101A50002C898C859D85E29F800D911D11248DCF51
:101A60006F927F928F929F92AF92BF92CF92DF92AE
:101A7000EF92FF920F931F93CF93DF93EC016B01D3
:101A80005A0139014801E881F9810284F385E02D8A
:101A90000995E881F9810288F389E02D8701930196
:101AA000A501B601CE010995A501480D591D41506A
:101AB0005109E881F9810288F389E02D9301B6018B
:101AC000CE010995E881F9810088F189E02D940122
:101AD000A501B601CE010995C60CD71CB60161500F
:101AE0007109E881F9810088F189E02D9401A5014F
:101AF000CE010995E881F9810688F789E02DCE01AC
:101B0000DF91CF911F910F91FF90EF90DF90CF90D9
:101B1000BF90AF909F908F907F906F9009946F923D
:101B20007F928F929F92AF92BF92CF92DF92EF926D
:101B3000FF920F931F93CF93DF935C01EB016A0138
:101B4000490138018701DC01ED91FC9162177307AF
:101B500019F5641675062CF0962D872D3A01C92EBD
:101B6000D82E9601261937092F5F3F4F048CF58D2B
:101B7000E02DA301BE01C5010995DF91CF911F9111
:101B80000F91FF90EF90DF90CF90BF90AF909F901C
:101B90008F907F906F9008954615570591F4261702
:101BA000370724F0892D4B01C22FD82F9E01281909
:101BB00039092F5F3F4F068CF78DE02DA601B40148
:101BC000DACF0284F385E02D0995D501ED91FC91E2
:101BD0000488F589E02D83019401A601BE01C501A9
:101BE0000995D501ED91FC910688F789E02DC50195
:101BF000DF91CF911F910F91FF90EF90DF90CF90E9
:101C0000BF90AF909F908F907F906F900994EF92CC
:101C1000FF920F931F93DC011A960D911C911B9755
:101C200018962D913C911997ED91FC9100A0F1A18E
:101C3000E02D7B0150E040E070E060E009951F91ED
:101C40000F91FF90EF9008954F925F926F927F9265
:101C50008F929F92AF92BF92CF92DF92EF92FF92BC
:101C60000F931F93CF93DF936C012B015A0139011E
:101C70004801DC01ED91FC910284F385E02D09958A
:101C8000E201640C751CD601ED91FC91C615D705D7
:101C90005CF40088F189E02D87019401A501BE0163
:101CA000C60109952196EFCF0688F789E02DC60178
:101CB000DF91CF911F910F91FF90EF90DF90CF9028
:101CC000BF90AF909F908F907F906F905F904F905C
:101CD00009948F929F92AF92BF92CF92DF92EF9230
:101CE000FF920F931F93CF93DF93EC015B014A01A7
:101CF0006901E881F9810284F385E02D0995950158
:101D00002C0D3D1D21503109E881F9810488F589A8
:101D1000E02D78018401A401B501CE010995E88187
:101D2000F9810688F789E02DCE01DF91CF911F91CF
:101D30000F91FF90EF90DF90CF90BF90AF909F906A
:101D40008F9009948F929F92AF92BF92CF92DF9221
:101D5000EF92FF920F931F93CF93DF93EC015B0100
:101D60004A0169017801E881F9810284F385E02D57
:101D70000995C80CD91C860101501109E881F98127
:101D80000488F589E02D9501A401B501CE010995DE
:101D9000E881F9810688F789E02DCE01DF91CF91A6
:101DA0001F910F91FF90EF90DF90CF90BF90AF9079
:101DB0009F908F900994EF92FF920F931F93DC01F5
:101DC000ED91FC9100A0F1A1E02D09951F910F91DB
:101DD000FF90EF9008950F931F93DC01ED91FC911C
:101DE000068CF78DE02D09951F910F9108950F93A3
:101DF0001F93DC01ED91FC91048CF58DE02D09958C
:101E00001F910F910895DC01ED91FC910084F18503
:101E1000E02D09943F924F925F926F927F928F9242
:101E20009F92AF92BF92CF92DF92EF92FF920F9369
:101E30001F93CF93DF935C017B014A016901390154
:101E400087E0680E711C93E0759467949A95E1F7AA
:101E50002B01400E511E10E000E0312CD0E0C0E01C
:101E6000CE0187709927330C892B59F4FE0183E04A
:101E7000F595E7958A95E1F7E00FF11FE80DF91D5B
:101E8000349037FE0AC021E030E0A701B5016C0FA5
:101E90007D1F89E793E00E94030F2196CC16DD0693
:101EA000F9F68FEFE81AF80A060D171DE414F50489
:101EB000A9F6DF91CF911F910F91FF90EF90DF90E6
:101EC000CF90BF90AF909F908F907F906F905F90DA
:101ED0004F903F9008952F923F924F925F926F9252
:101EE0007F928F929F92AF92BF92CF92DF92EF92AA
:101EF000FF920F931F93CF93DF9300D000D000D0B9
:101F0000CDB7DEB73C016A013E832D83FC82EB82B4
:101F10005801A41AB50AB7FE03C0B194A194B10840
:101F20008D809E80861A970A97FE03C091948194B3
:101F300091088A149B045CF0902F812F0D811E81E3
:101F40009D838E839C2D8D2D6B01692F782F0C1511
:101F50001D055CF09D818E817E836D83692F782FB6
:101F6000902F812F8601C92ED82E1601201A310AF2
:101F70002B012D813E81421A530A57FE03C0519412
:101F800041945108710137FE03C03FEFE31AF30A91
:101F9000F594E7948D819E81861797075CF5A1E003
:101FA000B0E0BA83A983C016D1064CF1D301ED91FC
:101FB000FC910484F585E02D2B813C81A8016D8185
:101FC0007E818A149B041CF04D815E81B801C3019F
:101FD0000995E418F508F7FE0AC02D813E81898134
:101FE0009A81280F391F3E832D83E20CF31C0F5F6B
:101FF0001F4FD9CF2FEF3FEF3A832983D4CF2696B7
:102000000FB6F894DEBF0FBECDBFDF91CF911F9109
:102010000F91FF90EF90DF90CF90BF90AF909F9087
:102020008F907F906F905F904F903F902F9008958A
:10203000089520916202260F3327331F2132310584
:10204000ECF420918602FC0190E080E0243069F0FD
:1020500082E00895A09162022191AC014E5B5D4F38
:10206000A40FB52FB11D2C930196861798F380917C
:102070006202680F6093620280E0089581E0089533
:102080001092860281E0809388021092870261E0BC
:1020900082E10E94C70661E083E10E94C706E9EB86
:1020A000F0E080818E7F808380818D7F808388E4D3
:1020B0008093B80085E48093BC000895CF93DF93AC
:1020C00091E0909341028823B9F0C091B800D0917B
:1020D000BA008091BC008A7B8093BC0060E082E102
:1020E0000E94C70660E083E10E94C7060E9440107C
:1020F000D093BA00C093B800DF91CF910895E091DA
:10210000B3028091B202E81730F4F0E0E45EFD4FD4
:10211000808190E008958FEF9FEF08959091B30232
:102120008091B2022FEF3FEF981748F4E92FF0E0CB
:10213000E45EFD4F208130E09F5F9093B302C901C0
:1021400008958091B2029091B302891B990B089572
:10215000CF92DF92EF92FF920F931F93CF93DF9373
:102160007C01CB018A012091C302222389F0EB017B
:102170006B01C40ED51ECC15DD0569F06991D70140
:10218000ED91FC910190F081E02DC7010995F3CF0D
:10219000642F0E941910C801DF91CF911F910F91F8
:1021A000FF90EF90DF90CF900895CF93DF931F9231
:1021B000CDB7DEB769832091C3022223F9F02091C5
:1021C000C002203258F021E030E0FC01338322834A
:1021D00090E080E00F90DF91CF9108958091C1024F
:1021E000E82FF0E0E450FE4F998190838F5F809359
:1021F000C1028093C00281E090E0ECCF61E0CE01AB
:1022000001960E941910F7CFCF92DF92EF92FF92C2
:102210000F931F93CF93DF93D091C00281E0D1320F
:1022200008F09CC0C091C2020E9431076B017C0182
:102230008091860281116CC082E08093860281E0E9
:10224000809388028FEF809385021092AA02D09328
:10225000A902ACEFB1E0E9E8F2E080E0D8138DC06C
:102260001092AB028091AB02CC0FC82BC093AB0293
:1022700080918702813009F084C0109287020E9409
:1022800031076B017C018091AB028093BB00809190
:102290003D0290913E02A0913F02B0914002892BF5
:1022A0008A2B8B2BA1F00E94310700913D021091E7
:1022B0003E0220913F02309140026C197D098E0947
:1022C0009F09061717072807390708F442C08091AD
:1022D000BC0083FDD8CF85EC8093BC000E94310701
:1022E0006B017C0180918602823009F44CC08091A0
:1022F00085028F3F09F469C080918502803209F41C
:1023000066C080918502803309F463C084E026C0F2
:1023100080913D0290913E02A0913F02B091400217
:10232000892B8A2B8B2B09F483CF0E9431070091D4
:102330003D0210913E0220913F02309140026C1903
:102340007D098E099F09061717072807390708F026
:102350006FCF80913C020E945E1085E01092C10216
:102360001092C0021092C302DF91CF911F910F9182
:10237000FF90EF90DF90CF9008959D9191938F5FA4
:102380006DCF85EEA9CF80913D0290913E02A09144
:102390003F02B0914002892B8A2B8B2B09F4A2CFEC
:1023A0000E94310700913D0210913E0220913F02B0
:1023B000309140026C197D098E099F090617170795
:1023C0002807390708F08ECFC4CF80E0C7CF82E05E
:1023D000C5CF83E0C3CFEF92FF920F931F93CF93AC
:1023E000DF937C01C62F809196039091970300970D
:1023F00009F459C020919A0331E03093C30220932D
:10240000C2021092C1021092C002DC01ED91FC9157
:102410000190F081E02D60E009958701EE24E394BE
:10242000F12CD1E0C1508091960390919703CF3F5A
:1024300091F1B0E2EB16F104D8F00E940411809102
:1024400096039091970320919A03D093C30220930F
:10245000C2021092C1021092C002DC01ED91FC9107
:102460000190F081E02D60E00995EE24E394F12CD9
:102470008091960390919703F8016491DC01ED91AE
:10248000FC910190F081E02D0995BFEFEB1AFB0A5A
:102490000F5F1F4FC7CFDF91CF911F910F91FF901B
:1024A000EF900C940411E091A603F091A7039081A2
:1024B0008091AC038095892380838701C15008F403
:1024C00038C0F80184912091940330919503232B17
:1024D00029F00E94190A0F5F1F4FF0CF28E030E06B
:1024E00040E8E091A203F091A3039091AA03582F32
:1024F0005423D9F05081952B9083E091A403F0915F
:10250000A50390815091AB03952B9083E091A40398
:10251000F091A50350819091AB0390959523908302
:10252000469521503109E9F6D6CF508190959523F3
:10253000E3CFDF91CF911F910F91FF90EF9008951E
:102540001F93CF93DF93EC018D8D9E8D009721F12A
:10255000162F29A131E03093C3022093C2021092BA
:10256000C1021092C002DC01ED91FC910190F0815A
:10257000E02D60E009958D8D9E8DDC01ED91FC9143
:102580000190F081E02D612F09958D8D9E8DDF9159
:10259000CF911F910C940411ADA5BEA59C918BA960
:1025A000809589238C938B8D9C8D892B31F0862F80
:1025B000DF91CF911F910C94190A28E030E080E858
:1025C000A9A5BAA599A9462F4823C1F04C91942BEF
:1025D0009C93ABA5BCA59C914AA9942B9C93ABA5BD
:1025E000BCA54C919AA9909594239C9386952150D3
:1025F000310931F7DF91CF911F9108954C9190955A
:102600009423E6CFDF92EF92FF920F931F93CF9325
:10261000DF938091960390919703892B09F4A5C0CD
:102620002091AE033091AF034091B0035091B103BC
:1026300060E074E284EF90E00E946A20205131094A
:102640004109510956954795379527952093B8002C
:1026500064E084E89AE00E94EB1180917D03909100
:102660007E038034910509F097C060E289E793E02A
:102670000E94A01260917D03615E89E793E00E9451
:10268000A01220917F0330918003C901079697FD26
:10269000079633E0959587953A95E1F720917D036C
:1026A00030917E03829F8001839F100D929F100DB9
:1026B0001124C0919803D091990380919603909131
:1026C00097030C0F1D1F009709F498C020919A03DF
:1026D00031E03093C3022093C2021092C1021092E3
:1026E000C002DC01ED91FC910190F081E02D60E4ED
:1026F0000995EE24E394F12CDD24D3948091960384
:10270000909197030C171D0709F44FC0B0E2EB1628
:10271000F104D8F00E9404118091960390919703E0
:1027200020919A03D092C3022093C2021092C10258
:102730001092C002DC01ED91FC910190F081E02D3E
:1027400060E40995EE24E394F12C80919603909136
:1027500097036991DC01ED91FC910190F081E02DEE
:102760000995BFEFEB1AFB0AC9CF809194039091B2
:102770009503892B31F08091B7039091B8030E94A3
:10278000200AE091A803F091A90390818091AD0304
:102790008095892380835CCF60E089E793E00E9485
:1027A000A01260917D03615068CF0E940411809156
:1027B000960390919703892B09F461C02091B2038D
:1027C0003091B3034091B4035091B50360E074E2DB
:1027D00084EF90E00E946A2020513109410951099B
:1027E00056954795379527952093B800DF91CF915F
:1027F0001F910F91FF90EF90DF900895E091A60355
:10280000F091A70380819091AC03892B80830C17F2
:102810001D0769F289912091940330919503232B30
:1028200019F00E94190AF3CF28E030E040E8E09167
:10283000A203F091A3039091AA03582F5423D9F037
:102840005081952B9083E091A403F091A503908192
:102850005091AB03952B9083E091A403F091A503D5
:1028600050819091AB03909595239083469521508C
:102870003109E9F6CCCF508190959523E3CFE091D3
:10288000A803F091A90380819091AD03892B8083E7
:10289000ADCF1F93CF93DF93EC01162F8D8D9E8DBF
:1028A000892BB1F12DA93EA94FA958AD60E074E282
:1028B00084EF90E00E946A202051310941095109BA
:1028C00056954795379527952093B80066EA1111DC
:1028D00067EACE010E94A0128D8D9E8D892B41F159
:1028E00029AD3AAD4BAD5CAD60E074E284EF90E0B1
:1028F0000E946A2020513109410951095695479596
:10290000379527952093B800DF91CF911F910895B7
:102910008B8D9C8D892B21F08EAD9FAD0E94200A5E
:10292000EFA5F8A990818CA9809589238083CECFCB
:10293000EFA5F8A980819CA9892B8083E5CF90E041
:1029400080E0089520917F0330918003C9010796AC
:1029500097FD079623E0959587952A95E1F72091B5
:102960007D0330917E03829FA001839F500D929F33
:10297000500D112470E060E08091980390919903CC
:102980000C949D22FC0101900020E9F73197AF01E2
:10299000481B590BBC0189E793E00C949507CF9332
:1029A000DF930E94C214EC0185E691E00E94C214FC
:1029B0008C0F9D1FDF91CF910895FC018081918143
:1029C000009711F00C94492108950E948F220F93D3
:1029D0001F93CF93DF93EC0188819981009759F081
:1029E0002A813B812617370730F081E0DF91CF91B4
:1029F0001F910F9108958B016F5F7F4F0E94D2212D
:102A0000009759F0998388831B830A832C813D8129
:102A1000232B59F7FC011082E8CF80E0E7CFEF923B
:102A2000FF920F931F93CF93DF93EC017B018A01F9
:102A3000BA010E94E71428813981811114C021153F
:102A4000310519F0C9010E944921198218821D829D
:102A50001C821B821A82CE01DF91CF911F910F91B0
:102A6000FF90EF9008951D830C83B701C9010E9468
:102A7000AD22F1CF50E040E067E671E00C940F1515
:102A800085ED8093BC0080913D0290913E02A09123
:102A90003F02B09140020796A11DB11D23E0B695FB
:102AA000A795979587952A95D1F72091BC0024FD8D
:102AB00003C010928602089540913D0250913E025B
:102AC00060913F0270914002452B462B472B69F3E2
:102AD0000097A105B10541F02AE22A95F1F700C05F
:102AE0000197A109B109E1CF80913C020C945E10DD
:102AF0001F920F920FB60F9211242F933F938F9333
:102B00009F93AF93BF938091BC029091BD02A0911F
:102B1000BE02B091BF023091B70223E0230F2D37E0
:102B200058F50196A11DB11D2093B7028093BC02F8
:102B30009093BD02A093BE02B093BF028091B802F1
:102B40009091B902A091BA02B091BB020196A11D69
:102B5000B11D8093B8029093B902A093BA02B093CA
:102B6000BB02BF91AF919F918F913F912F910F9099
:102B70000FBE0F901F90189526E8230F0296A11DF7
:102B8000B11DD2CF1F920F920FB60F9211242F9327
:102B90003F934F935F936F937F938F939F93AF93E5
:102BA000BF93CF93DF93EF93FF938091AC02C091DB
:102BB000E802D0E087FF24C01092850010928400C4
:102BC0008091AC028F5F8093AC028091AC02082EA2
:102BD000000C990B8C179D0724F48091AC028C306B
:102BE000C4F18091840090918500049680349C49C2
:102BF00008F47AC08091840090918500049676C094
:102C00008091AC02082E000C990B8C179D07C4F61E
:102C1000E091AC028E2FEE0F990BFC01EE0FFF1F1F
:102C2000E80FF91FEC53FD4F808186FFC9CFE0917B
:102C3000AC028E2FEE0F990BFC01EE0FFF1FE80F79
:102C4000F91FEC53FD4F808160E08F730E94C7062F
:102C5000B7CF2091840030918500E091AC028E2F97
:102C6000EE0F990BFC01EE0FFF1FE80FF91FEC535D
:102C7000FD4F81819281820F931F909389008093F1
:102C80008800E091AC028E2FEE0F990BFC01EE0F45
:102C9000FF1FE80FF91FEC53FD4F808186FF11C025
:102CA000E091AC028E2FEE0F990BFC01EE0FFF1F8F
:102CB000E80FF91FEC53FD4F808161E08F730E9494
:102CC000C706FF91EF91DF91CF91BF91AF919F9197
:102CD0008F917F916F915F914F913F912F910F90C5
:102CE0000FBE0F901F90189580E49CE99093890087
:102CF000809388008FEF8093AC02E3CF1F920F92F6
:102D00000FB60F9211242F933F934F935F936F93BE
:102D10007F938F939F93AF93BF93EF93FF93809194
:102D2000B900887F803609F44AC0F0F5883209F48A
:102D3000A7C018F5803109F49BC0B8F4882309F4C2
:102D4000F9C0883009F494C0FF91EF91BF91AF9121
:102D50009F918F917F916F915F914F913F912F91B3
:102D60000F900FBE0F901F901895883109F488C0FE
:102D7000803251F78093850214C0803409F49DC0DD
:102D800040F48033B9F38833F9F68093850285ECFB
:102D9000B0C0803509F485C0883509F496C0883400
:102DA00099F60E944015D0CF883909F48CC038F5C7
:102DB000883729F050F4883611F0803729F683E0FF
:102DC000809386021092840257C0883809F47BC031
:102DD000803919F0803809F0B7CF809184028032B1
:102DE00008F071C0E091840281E08E0F809384022C
:102DF0008091BB00F0E0EC59FD4F80833DC0803BEB
:102E000039F0E0F4803A09F479C0883A09F09CCFAF
:102E100084E0809386021092630210926202E09135
:102E2000B002F091B10209958091620281110FC048
:102E300081E0809362021092420209C0803C09F452
:102E4000A6CF883C09F4A3CF883B09F07DCFE09161
:102E5000630281E08E0F80936302F0E0EE5BFD4F32
:102E600080818093BB00909163028091620229C0AF
:102E70008091AB028093BB0085EC8093BC0064CF53
:102E80009091AA028091A902981758F5E091AA02A0
:102E900081E08E0F8093AA02F0E0E757FD4F80811A
:102EA000E9CFE091AA0281E08E0F8093AA0280917F
:102EB000BB00F0E0E757FD4F80839091AA0280911C
:102EC000A9029817C8F285E8D8CFE091AA0281E05C
:102ED0008E0F8093AA028091BB00F0E0E757FD4F70
:102EE00080838091880281115CCF81E0809387028A
:102EF00084EA8093BC001092860226CF85EC8093F2
:102F0000BC001092860280918402803230F4E091FD
:102F10008402F0E0EC59FD4F10826091840270E071
:102F2000E091AE02F091AF0284E692E00995109232
:102F300084020ACF1092850234CFFC0111821082E4
:102F40001382128215821482FB0101900020E9F79E
:102F50003197AF01461B570B0C940F15109270035D
:102F600010926F0388EE93E0A0E0B0E080937103CD
:102F700090937203A0937303B093740381E291E082
:102F800090936E0380936D0310927C0310927B03E9
:102F900020E830E030937E0320937D0380E490E0CE
:102FA0009093800380937F03309382032093810367
:102FB000909384038093830310928F03109286036F
:102FC00010928503109288031092870381E080930A
:102FD0008E0380938D032FEF3FEF30938C0320936C
:102FE0008B0330938A03209389038093900310927C
:102FF000910310929303109292038DE391E09093CA
:103000007A038093790310929503109294038DE6CE
:1030100093E09093970380939603109299031092F4
:1030200098039FEF90939D0390939E0390939F032B
:103030009093A0039093A10340E85AE166E070E00A
:103040004093AE035093AF036093B0037093B1030A
:1030500040EA56E861E070E04093B2035093B30356
:103060006093B4037093B50380E58093B703109227
:10307000B8038091E8028C3008F06FC091E0980F9F
:103080009093E80280936A0390E0FC01EE0FFF1F2B
:10309000E80FF91FEC53FD4F88EB9BE0928381838F
:1030A0001092FD021092010310920003109202038D
:1030B00083E391E09093FC028093FB02E7E1F3E06D
:1030C0001082148213821582369683E0E335F80766
:1030D000B9F783E091E090935E0380935D0380E015
:1030E00091E09093600380935F0384E08093610399
:1030F00083E08093620387E091E090935C03809388
:103100005B038AE090E0909364038093630384EF11
:1031100091E0909366038093650310926903109287
:10312000680310925703109258031092590310929B
:103130005A031092670367E671E085EF92E00E9400
:103140009D1768E671E08FEE92E00E949D176DE694
:1031500071E089EE92E00C949D1790936A03A0CFE2
:10316000CF93DF93CDB7DEB7AB970FB6F894DEBF42
:103170000FBECDBF789484B5826084BD84B5816074
:1031800084BD85B5826085BD85B5816085BD809132
:103190006E00816080936E001092810080918100AA
:1031A00082608093810080918100816080938100A2
:1031B000809180008160809380008091B100846064
:1031C0008093B1008091B00081608093B0008091C5
:1031D0007A00846080937A0080917A008260809384
:1031E0007A0080917A00816080937A0080917A00E1
:1031F000806880937A001092C10080E480937C0004
:1032000080917A00806480937A0080917A0086FDB4
:10321000FCCF6091780070917900072E000C880B2C
:10322000990B611571058105910511F00E94F81F38
:1032300080916A038C3008F051C061E086E00E9402
:10324000F50680916A03282F30E0F901EE0FFF1F89
:10325000E20FF31FEC53FD4F9081907C96609083BA
:1032600010926B0310926C032CE0622F0E949B2043
:10327000829FB001112430E020E0AB01420F531FC8
:10328000FA01EE0FFF1FE40FF51FEC53FD4F908185
:1032900096FD16C02F5F3F4F2C30310571F781111D
:1032A0000FC01092800082E0809381001092850010
:1032B00010928400B19A80916F00826080936F00B9
:1032C000E0916A038E2F90E0FC01EE0FFF1FE80FE4
:1032D000F91FEC53FD4F80818064808361E08BE0B7
:1032E0000E94F50661E08CE00E94F50690E080E027
:1032F0000E9471058091980390919903892B11F593
:1033000020917F0330918003C901079697FD0796AE
:10331000B3E095958795BA95E1F720917D033091BB
:103320007E03AC01429FC001439F900D529F900DC0
:1033300011240E94AD209093990380939803892BC8
:1033400009F492C20E94A21420917F03309180035D
:1033500080917D0390917E03B901213231050CF4F7
:103360006BC16054710977FF02C06F5F7F4F759525
:1033700067958255910997FD019600E410E022E5DA
:1033800030E04AE657E0959587950E940A0F82E063
:1033900080939B038091960390919703892B09F466
:1033A0005EC18CE380939A031092B3021092B20232
:1033B0001092C1021092C0020E94401083E997E06F
:1033C0009093B1028093B00284E997E09093AF02AA
:1033D0008093AE028091A10387FD1EC061E00E9430
:1033E000F50661E08091A1030E94C70661E070E0EC
:1033F00080E090E00E94560760E08091A1030E9467
:10340000C7066AE070E080E090E00E94560761E045
:103410008091A1030E94C706809196039091970323
:10342000892B09F4DBC12091AE033091AF034091A9
:10343000B0035091B10360E074E284EF90E00E9429
:103440006A20205131094109510956954795379510
:1034500027952093B80064E086E895E00E94EB1180
:1034600060917F03615089E793E00E94A01264E0BD
:1034700082E895E00E94EB1180919B0360E181302E
:1034800009F064E189E793E00E94A01264E08EE70E
:1034900095E00E94EB118FE88093B60380917D0345
:1034A00090917E038038910509F0AFC180917F0330
:1034B000909180038034910509F0B7C180919B03FE
:1034C000813009F0C5C18FE98093B60312E16AED3E
:1034D00089E793E00E94A012612F89E793E00E94A0
:1034E000A01261E889E793E00E94A0126091B60300
:1034F00089E793E00E94A01269ED89E793E00E94BA
:10350000A01280919B0362E2813009F061EF89E7AC
:1035100093E00E94A01266E088E795E00E94EB111C
:103520008091960390919703892B09F493C1209180
:10353000B2033091B3034091B4035091B50360E0FE
:1035400074E284EF90E00E946A2020513109410921
:10355000510956954795379527952093B8000E94B5
:10356000A21481E080938D0380938E0381E090E02C
:1035700090938C0380938B0390938A0380938903A9
:10358000109286031092850310928803109287038D
:1035900088E791E00E94CF140E94021368EE73E066
:1035A00080E090E00E9456070E94A214EAE0CE2E2E
:1035B000D12CE12CF12CF5E04F2E512C612C712CEB
:1035C0000E94A21481E080938D0380938E0381E09A
:1035D00090E090938C0380938B0390938A03809365
:1035E000890310928603109285031092880310922B
:1035F000870383E891E00E94CF1483E991E00E9461
:10360000CF14109286031092850384E190E090938A
:1036100088038093870310E000E08091F902909185
:10362000FA020817190708F020C188EA91E00E9401
:10363000C2140F5F1F4FF1CF6052710977FF02C0B4
:103640006F5F7F4F759567958357910997FD019639
:1036500000E210E023E730E04AE855E094CE61E074
:1036600080919F030E94F50661E08091A0030E9473
:10367000F50680919F03082E000C990BFC01E85B76
:10368000F54FE491F0E0EE0FFF1FEC5CF54F259154
:1036900034913093A7032093A603FC01E45AF54F1D
:1036A000E491E093AC038091A003082E000C990BE9
:1036B000FC01E85BF54FE491F0E0EE0FFF1FEC5CDE
:1036C000F54FA591B491B093A903A093A803FC0171
:1036D000E45AF54FE491E093AD038C91E82BEC9321
:1036E0008091940390919503892B09F434C01FB7FE
:1036F000F8948091AD02811127C0E2E5FAE084914F
:10370000E6E6FAE09491E82FF0E0EE0FFF1FE65DA9
:10371000F54FA591B491EC91E92321F461E08AE0A1
:103720000E94C70661E08AE00E94F5068CB58061C0
:103730008CBD8CB580648CBD61E08DE00E94F50687
:1037400061E08BE00E94F5068091AD028F5F80936F
:10375000AD021FBF3FCE61E080919D030E94F50640
:1037600061E080919E030E94F50680919D03082EE2
:10377000000C990BFC01E85BF54FE491F0E0EE0FD3
:10378000FF1FEC5CF54F259134913093A3032093F8
:10379000A203FC01E45AF54FE491E093AA0380915F
:1037A0009E03082E000C990BFC01E85BF54FE49199
:1037B000F0E0EE0FFF1FEC5CF54FA591B491B093D4
:1037C000A503A093A403FC01E45AF54FE491E09310
:1037D000AB038C91E095E823EC93FCCD80919403AE
:1037E00090919503892B31F08091B7039091B803A4
:1037F0000E94200AE091A803F091A9039081809192
:10380000AD0380958923808326CE8036910589F487
:1038100080917F0390918003409739F480919B03BE
:10382000813029F480E18093B60312E050CE8FEA14
:10383000FACF80349105C9F780917F03909180037E
:10384000809799F780919B03813011F480E13CCE01
:103850008FEC3ACEE091A803F091A903808190917A
:10386000AD03892B80837BCEFFCF0E94021381E0C2
:10387000809367038FB7F8944091BC025091BD02CA
:103880006091BE027091BF028FBF809157039091EB
:103890005803A0915903B0915A03481B590B6A0B66
:1038A0007B0B8091630390916403B0E0A0E08417E8
:1038B0009507A607B70708F022C110E080916103C1
:1038C000181760F4E0915D03F0915E03E10FF11DC4
:1038D00062E080810E94F5061F5FF0CF912C8091FD
:1038E0006203981608F069C0092D10E0E0915F03AB
:1038F000F0916003E00FF11F61E080810E94F50606
:10390000E0915F03F0916003E00FF11F60E08081C0
:103910000E94C70681E090E0A0E0B0E0092C04C05E
:10392000880F991FAA1FBB1F0A94D2F79BA78AA7CB
:103930001C0120943094812C80916103881630F50D
:10394000A82CB12CE0915D03F0915E03EA0DFB1D04
:1039500080810E949E06F5013496892B71F4EE0F4A
:10396000FF1FE550FD4F808191812AA53BA5822B49
:10397000932B918380838394DFCFEE0FFF1FE5505D
:10398000FD4F8081918182219321F3CFE0915F03EC
:10399000F0916003E00FF11F61E080810E94C70693
:1039A00080915F0390916003080F191F60E0F80198
:1039B00080810E94F506939492CF0BEF12E0F801FC
:1039C000878D90A1892B31F4148E2FEF3FEF368F26
:1039D000258F11A2369633E0E733F30789F7B12C30
:1039E00056E0352E80916103B81608F052C0A12C24
:1039F0008B2C912C880C991CA4014D5F5C4F4A01C3
:103A000020916203A21608F042C0F4016081718126
:103A10000A2C02C0769567950A94E2F7B29E90014F
:103A200011242A0D311DEBEFF2E080E0458D568D1B
:103A30002417350709F451C18F5F36968A30B1F7E4
:103A400060FF23C0EBEFF2E090E080E0448D411195
:103A500017C0E0915B03F0915C03E20FF31F40811C
:103A6000389EF001399EF00D1124E550FD4F448F32
:103A7000368F258F10A2178E61E00E94050605C0C3
:103A8000019636968A30910509F7A394B9CFB3947D
:103A9000A9CF80E0F80191A19111892F0A5F1F4FF2
:103AA000F3E007331F07B1F79FB7F8944091BC02CA
:103AB0005091BD026091BE027091BF029FBF4093C2
:103AC0005703509358036093590370935A03882304
:103AD000B1F080911C03882391F080911A0390919A
:103AE0001B03019761F48091170381110BC080E0E3
:103AF00090E0892B09F464CD0E94000061CD109202
:103B00006703F5CF833209F0C2C02091F9023091EA
:103B1000FA028091F3029091F4022817390769F5AF
:103B20008091F5029091F6026091EF027091F0029F
:103B3000009709F4D4C06115710539F4232B09F4F9
:103B4000DCC0FC01808190E0D5C00E94A422D2C0DC
:103B50008091EF029091F002009711F00E944921AC
:103B60001092F0021092EF021092F4021092F302FF
:103B70001092F2021092F1022CC10091B502109144
:103B8000B6020F5F1F4F1093B6020093B5020E945A
:103B9000A21410928603109285031092880310924B
:103BA0008703033011050CF063C08FEC91E00E9495
:103BB000CF148FED91E00E94C2148091B5029091D4
:103BC000B60223E0822E912C881A990A092C000C47
:103BD000AA08BB08B7FE36C06DE289E793E00E94F1
:103BE0005E0C22273327A901281939094A095B09E4
:103BF00019A28E010F5D1F4FCA01B901A7019601DD
:103C00000E946A20605DF80162938F0121153105E1
:103C10004105510589F70115110519F0C8010E94E8
:103C2000C21485E691E00E94C2140E94021360ED66
:103C300077E080E090E00E94560785EF92E00E94D6
:103C40003A1555CFA501940119A28E010F5D1F4FA2
:103C5000CA01B901A70196010E946A20605DF801BE
:103C600062938F01211531054105510589F7D3CFA5
:103C700090E080E00E9471058DEE91E00E94CF14EB
:103C80000E94021361E08CE00E94C706FFCF8A32D7
:103C9000A1F289831A820091F9021091FA020F5F52
:103CA0001F4FB80185EF92E00E94E714882309F4C2
:103CB0001ECF2091F5023091F6028091F902909189
:103CC000FA02BE016F5F7F4F820F931F0E94AD22E9
:103CD0001093FA020093F9020ACF6170CECE6115FB
:103CE000710559F0232B49F0FB01808190E09195FB
:103CF00081959109892B09F040CF8FEE92E00E94C7
:103D00003A151BA21AA21DA21CA21FA21EA26091FC
:103D1000E9027091EA026115710541F04091ED02EE
:103D20005091EE02CE0182960E940F151A821982DE
:103D30001C821B821E821D8250E040E067E671E01B
:103D4000CE0101960E940F1534E0A32EB12C0E94E3
:103D5000A91FA30192010E9401202EA13FA1621779
:103D6000730738F42AA13BA1C901860F971F232BA3
:103D700021F41092B40284EB92E0FC01808188A7C8
:103D800019A60D811E810F5F1F4FB801CE0101964C
:103D90000E94E714882369F029813A818D819E81F0
:103DA000BE01685D7F4F820F931F0E94AD221E836C
:103DB0000D83F1E0AF1AB10851F669817A8161157E
:103DC000710509F4C5CE4D815E818FEE92E00E94AF
:103DD0000F15CE0101960E94DD14CE0182960E943D
:103DE000DD140E94A2141092860310928503109293
:103DF0008803109287038AEA91E00E94CF1489EB2E
:103E000091E00E94C2144091F3025091F40260913B
:103E1000EF027091F00289E793E00E9495070E94FB
:103E2000021361E08BE00E94C70610E000E0C801C9
:103E30000E9471056FE070E080E090E00E945607FC
:103E40000F5F1F4F053B110591F760EA7FE080E0AF
:103E500090E00E9456070EE610E0C8010E9471052E
:103E60006FE070E080E090E00E9456070150110979
:103E7000A0F785EF92E00E943A1560E08BE00E9487
:103E8000C70635CE89EE92E00E94DD148FEE92E0F7
:103E90000E94DD1485EF92E00E94DD148DE391E035
:103EA00090937A038093790380919803909199037A
:103EB000009711F00C94492108958F929F92AF9230
:103EC000BF92CF92DF92EF92FF92CF93DF93EC01FC
:103ED000688179818A819B816115710581059105D0
:103EE00021F464E279ED8BE597E02DE133EF41E0D9
:103EF00050E00E94012049015A019B01AC01A7EA50
:103F0000B1E40E9420206B017C01ACEEB4EFA5016E
:103F100094010E942E20C60ED71EE81EF91EF7FE41
:103F200006C081E0C81AD108E10880E8F80AC88212
:103F3000D982EA82FB82C701B6019F77DF91CF91D8
:103F4000FF90EF90DF90CF90BF90AF909F908F90B9
:103F500008958F929F92AF92BF92CF92DF92EF928D
:103F6000FF9260911301709114018091150190915D
:103F70001601611571058105910521F464E279ED61
:103F80008BE597E02DE133EF41E050E00E94012006
:103F900049015A019B01AC01A7EAB1E40E9420202B
:103FA0006B017C01ACEEB4EFA50194010E942E20C0
:103FB000C60ED71EE81EF91EF7FE06C081E0C81A1D
:103FC000D108E10880E8F80AC0921301D0921401E8
:103FD000E0921501F0921601C701B6019F77FF909C
:103FE000EF90DF90CF90BF90AF909F908F9008950B
:103FF000609313017093140180931501909316013F
:104000000895052E97FB1EF400940E94182057FD7A
:1040100007D00E946A2007FC03D04EF40C941820AD
:1040200050954095309521953F4F4F4F5F4F0895E4
:1040300090958095709561957F4F8F4F9F4F089514
:104040000E948C20A59F900DB49F900DA49F800D81
:10405000911D11240895B7FF0C9420200E94202068
:10406000821B930B08952F923F924F925F926F9213
:104070007F928F929F92AF92BF92CF92DF92EF92F8
:10408000FF920F931F93CF93DF93CDB7DEB7CA1B79
:10409000DB0B0FB6F894DEBF0FBECDBF09942A88A4
:1040A000398848885F846E847D848C849B84AA844C
:1040B000B984C884DF80EE80FD800C811B81AA81D9
:1040C000B981CE0FD11D0FB6F894DEBF0FBECDBFA4
:1040D000ED010895A1E21A2EAA1BBB1BFD010DC024
:1040E000AA1FBB1FEE1FFF1FA217B307E407F507A8
:1040F00020F0A21BB30BE40BF50B661F771F881F84
:10410000991F1A9469F760957095809590959B0119
:10411000AC01BD01CF010895A29FB001B39FC001C2
:10412000A39F700D811D1124911DB29F700D811DE3
:104130001124911D0895991B79E004C0991F9617C9
:1041400008F0961B881F7A95C9F780950895EE0FA1
:10415000FF1F0590F491E02D09940F931F93CF93C7
:10416000DF938230910510F482E090E0E091BB0390
:10417000F091BC0330E020E0B0E0A0E0309799F48B
:104180002115310509F44AC0281B390B24303105AB
:10419000D8F58A819B816115710589F1FB019383B3
:1041A0008283FE0111C04081518102811381481731
:1041B0005907E0F04817590799F4109761F01296E3
:1041C0000C93129713961C933296CF01DF91CF91E7
:1041D0001F910F9108950093BB031093BC03F4CF7C
:1041E0002115310551F04217530738F0A901DB01C1
:1041F0009A01BD01DF01F801C1CFEF01F9CF909322
:10420000BC038093BB03CDCFFE01E20FF31F81936C
:1042100091932250310939832883D7CF2091B90354
:104220003091BA03232B41F42091190130911A01E6
:104230003093BA032093B9032091170130911801EC
:104240002115310541F42DB73EB740911B01509126
:104250001C01241B350BE091B903F091BA03E2175E
:10426000F307A0F42E1B3F0B2817390778F0AC0199
:104270004E5F5F4F2417350748F04E0F5F1F509376
:10428000BA034093B903819391939FCFF0E0E0E0AC
:104290009CCFCF93DF930097E9F0FC013297138214
:1042A0001282A091BB03B091BC03ED0130E020E08D
:1042B0001097A1F420813181820F931F2091B903BF
:1042C0003091BA032817390709F061C0F093BA0397
:1042D000E093B903DF91CF910895EA01CE17DF078C
:1042E000E8F54A815B819E0141155105B1F7E9016D
:1042F000FB83EA8349915991C40FD51FEC17FD0741
:1043000061F4808191810296840F951FE901998360
:104310008883828193819B838A83F0E0E0E0129618
:104320008D919C9113970097B9F52D913C91119720
:10433000CD010296820F931F2091B9033091BA03E9
:104340002817390739F6309751F51092BC031092AF
:10435000BB03B093BA03A093B903BCCFD383C2838A
:1043600040815181840F951FC817D90761F44E5FB2
:104370005F4F88819981480F591F518340838A81FB
:104380009B81938382832115310509F0B0CFF0938F
:10439000BC03E093BB039ECFFD01DC01C0CF1382C1
:1043A0001282D7CFB0E0A0E0E8EDF1E20C94352026
:1043B0008C01009751F4CB010E94AD208C01C80103
:1043C000CDB7DEB7E0E10C945120FC01E60FF71FFA
:1043D0009C0122503109E217F30708F49DC0D9016E
:1043E000CD91DC911197C617D70798F0C530D1054C
:1043F00030F3CE0104978617970708F3C61BD70B37
:104400002297C193D1936D937C93CF010E94492150
:10441000D6CF5B01AC1ABD0A4C018C0E9D1EA0913B
:10442000BB03B091BC03512C412CF12CE12C109713
:1044300031F58091B9039091BA038815990509F077
:104440005CC04616570608F058C08091170190913D
:104450001801009741F48DB79EB740911B01509110
:104460001C01841B950BE817F90708F055C0F09361
:10447000BA03E093B903F90171836083A0CF8D91F2
:104480009C91119712966C90129713967C901397AB
:10449000A815B90559F56C0142E0C40ED11CCA1427
:1044A000DB0420F1AC014A195B09DA011296159779
:1044B00080F06282738251834083D9016D937C9333
:1044C000E114F10471F0D7011396FC93EE93129767
:1044D00076CF22968C0F9D1FF90191838083F30183
:1044E000EFCFF093BC03E093BB0369CF48165906A6
:1044F00008F42C017D01D3019ACFCB010E94AD209D
:104500007C01009749F0AE01B8010E949422C801D5
:104510000E944921870153CF10E000E050CF81E095
:1045200090E0F8940C94B422FB01DC0102C00190ED
:104530000D9241505040D8F70895DC0101C06D93B1
:1045400041505040E0F70895FB01DC018D9101904E
:1045500080190110D9F3990B0895FB01DC0101903A
:104560000D920020E1F7089515E0C5E4D5E004C000
:10457000FE010E94A7202196C634D107C9F7F894FE
:02458000FFCF6B
:1045820008090A0504030231323334353637383923
:104592002A3023010000000000BD0380000000005B
:1045A20000D510A8109F147005A1108E107F100066
:1045B20000000088078C079007000000005E0C9541
:1045C200079F14181069097005030FDB0EF70EEB35
:1045D2000E6B0F7005240A4914D9082209240E070C
:1045E2000E8F0D300D0D0A0031323334003132336B
:1045F20034353637383930004C6F6164696E672E56
:104602002E2E005365637572697479205379737421
:10461200656D00454E54455220594F555220504128
:104622005353574F52443A002A0041434345535390
:10463200204752414E54454400796F7572206E6591
:10464200772070617373776F7264206973200057EB
:10465200726F6E672070617373776F72642100549A
:104662007269616C73206C6566743A200041434341
:0C4672004553532044454E494544000088
:00000001FF
